{
  "_format": "hh3-artifact-1",
  "contractName": "CertificateSBT",
  "sourceName": "contracts/CertificateSBT.sol",
  "abi": [
    {
      "inputs": [],
      "stateMutability": "nonpayable",
      "type": "constructor"
    },
    {
      "inputs": [],
      "name": "AccessControlBadConfirmation",
      "type": "error"
    },
    {
      "inputs": [
        {
          "internalType": "address",
          "name": "account",
          "type": "address"
        },
        {
          "internalType": "bytes32",
          "name": "neededRole",
          "type": "bytes32"
        }
      ],
      "name": "AccessControlUnauthorizedAccount",
      "type": "error"
    },
    {
      "inputs": [
        {
          "internalType": "address",
          "name": "sender",
          "type": "address"
        },
        {
          "internalType": "uint256",
          "name": "tokenId",
          "type": "uint256"
        },
        {
          "internalType": "address",
          "name": "owner",
          "type": "address"
        }
      ],
      "name": "ERC721IncorrectOwner",
      "type": "error"
    },
    {
      "inputs": [
        {
          "internalType": "address",
          "name": "operator",
          "type": "address"
        },
        {
          "internalType": "uint256",
          "name": "tokenId",
          "type": "uint256"
        }
      ],
      "name": "ERC721InsufficientApproval",
      "type": "error"
    },
    {
      "inputs": [
        {
          "internalType": "address",
          "name": "approver",
          "type": "address"
        }
      ],
      "name": "ERC721InvalidApprover",
      "type": "error"
    },
    {
      "inputs": [
        {
          "internalType": "address",
          "name": "operator",
          "type": "address"
        }
      ],
      "name": "ERC721InvalidOperator",
      "type": "error"
    },
    {
      "inputs": [
        {
          "internalType": "address",
          "name": "owner",
          "type": "address"
        }
      ],
      "name": "ERC721InvalidOwner",
      "type": "error"
    },
    {
      "inputs": [
        {
          "internalType": "address",
          "name": "receiver",
          "type": "address"
        }
      ],
      "name": "ERC721InvalidReceiver",
      "type": "error"
    },
    {
      "inputs": [
        {
          "internalType": "address",
          "name": "sender",
          "type": "address"
        }
      ],
      "name": "ERC721InvalidSender",
      "type": "error"
    },
    {
      "inputs": [
        {
          "internalType": "uint256",
          "name": "tokenId",
          "type": "uint256"
        }
      ],
      "name": "ERC721NonexistentToken",
      "type": "error"
    },
    {
      "anonymous": false,
      "inputs": [
        {
          "indexed": true,
          "internalType": "address",
          "name": "owner",
          "type": "address"
        },
        {
          "indexed": true,
          "internalType": "address",
          "name": "approved",
          "type": "address"
        },
        {
          "indexed": true,
          "internalType": "uint256",
          "name": "tokenId",
          "type": "uint256"
        }
      ],
      "name": "Approval",
      "type": "event"
    },
    {
      "anonymous": false,
      "inputs": [
        {
          "indexed": true,
          "internalType": "address",
          "name": "owner",
          "type": "address"
        },
        {
          "indexed": true,
          "internalType": "address",
          "name": "operator",
          "type": "address"
        },
        {
          "indexed": false,
          "internalType": "bool",
          "name": "approved",
          "type": "bool"
        }
      ],
      "name": "ApprovalForAll",
      "type": "event"
    },
    {
      "anonymous": false,
      "inputs": [
        {
          "indexed": false,
          "internalType": "uint256",
          "name": "_fromTokenId",
          "type": "uint256"
        },
        {
          "indexed": false,
          "internalType": "uint256",
          "name": "_toTokenId",
          "type": "uint256"
        }
      ],
      "name": "BatchMetadataUpdate",
      "type": "event"
    },
    {
      "anonymous": false,
      "inputs": [
        {
          "indexed": true,
          "internalType": "uint256",
          "name": "tokenId",
          "type": "uint256"
        },
        {
          "indexed": true,
          "internalType": "address",
          "name": "student",
          "type": "address"
        },
        {
          "indexed": false,
          "internalType": "string",
          "name": "studentName",
          "type": "string"
        }
      ],
      "name": "CertificateIssued",
      "type": "event"
    },
    {
      "anonymous": false,
      "inputs": [
        {
          "indexed": true,
          "internalType": "uint256",
          "name": "tokenId",
          "type": "uint256"
        },
        {
          "indexed": true,
          "internalType": "address",
          "name": "revoker",
          "type": "address"
        }
      ],
      "name": "CertificateRevoked",
      "type": "event"
    },
    {
      "anonymous": false,
      "inputs": [
        {
          "indexed": false,
          "internalType": "uint256",
          "name": "_tokenId",
          "type": "uint256"
        }
      ],
      "name": "MetadataUpdate",
      "type": "event"
    },
    {
      "anonymous": false,
      "inputs": [
        {
          "indexed": true,
          "internalType": "bytes32",
          "name": "role",
          "type": "bytes32"
        },
        {
          "indexed": true,
          "internalType": "bytes32",
          "name": "previousAdminRole",
          "type": "bytes32"
        },
        {
          "indexed": true,
          "internalType": "bytes32",
          "name": "newAdminRole",
          "type": "bytes32"
        }
      ],
      "name": "RoleAdminChanged",
      "type": "event"
    },
    {
      "anonymous": false,
      "inputs": [
        {
          "indexed": true,
          "internalType": "bytes32",
          "name": "role",
          "type": "bytes32"
        },
        {
          "indexed": true,
          "internalType": "address",
          "name": "account",
          "type": "address"
        },
        {
          "indexed": true,
          "internalType": "address",
          "name": "sender",
          "type": "address"
        }
      ],
      "name": "RoleGranted",
      "type": "event"
    },
    {
      "anonymous": false,
      "inputs": [
        {
          "indexed": true,
          "internalType": "bytes32",
          "name": "role",
          "type": "bytes32"
        },
        {
          "indexed": true,
          "internalType": "address",
          "name": "account",
          "type": "address"
        },
        {
          "indexed": true,
          "internalType": "address",
          "name": "sender",
          "type": "address"
        }
      ],
      "name": "RoleRevoked",
      "type": "event"
    },
    {
      "anonymous": false,
      "inputs": [
        {
          "indexed": true,
          "internalType": "address",
          "name": "from",
          "type": "address"
        },
        {
          "indexed": true,
          "internalType": "address",
          "name": "to",
          "type": "address"
        },
        {
          "indexed": true,
          "internalType": "uint256",
          "name": "tokenId",
          "type": "uint256"
        }
      ],
      "name": "Transfer",
      "type": "event"
    },
    {
      "inputs": [],
      "name": "DEFAULT_ADMIN_ROLE",
      "outputs": [
        {
          "internalType": "bytes32",
          "name": "",
          "type": "bytes32"
        }
      ],
      "stateMutability": "view",
      "type": "function"
    },
    {
      "inputs": [],
      "name": "ISSUER_ROLE",
      "outputs": [
        {
          "internalType": "bytes32",
          "name": "",
          "type": "bytes32"
        }
      ],
      "stateMutability": "view",
      "type": "function"
    },
    {
      "inputs": [
        {
          "internalType": "address",
          "name": "_school",
          "type": "address"
        },
        {
          "internalType": "string",
          "name": "_name",
          "type": "string"
        }
      ],
      "name": "addIssuer",
      "outputs": [],
      "stateMutability": "nonpayable",
      "type": "function"
    },
    {
      "inputs": [
        {
          "internalType": "address",
          "name": "to",
          "type": "address"
        },
        {
          "internalType": "uint256",
          "name": "tokenId",
          "type": "uint256"
        }
      ],
      "name": "approve",
      "outputs": [],
      "stateMutability": "nonpayable",
      "type": "function"
    },
    {
      "inputs": [
        {
          "internalType": "address",
          "name": "owner",
          "type": "address"
        }
      ],
      "name": "balanceOf",
      "outputs": [
        {
          "internalType": "uint256",
          "name": "",
          "type": "uint256"
        }
      ],
      "stateMutability": "view",
      "type": "function"
    },
    {
      "inputs": [
        {
          "internalType": "uint256",
          "name": "",
          "type": "uint256"
        }
      ],
      "name": "certificates",
      "outputs": [
        {
          "internalType": "string",
          "name": "studentName",
          "type": "string"
        },
        {
          "internalType": "string",
          "name": "degreeName",
          "type": "string"
        },
        {
          "internalType": "bytes32",
          "name": "fileHash",
          "type": "bytes32"
        },
        {
          "internalType": "uint256",
          "name": "issueDate",
          "type": "uint256"
        },
        {
          "internalType": "address",
          "name": "issuer",
          "type": "address"
        },
        {
          "internalType": "bool",
          "name": "isValid",
          "type": "bool"
        }
      ],
      "stateMutability": "view",
      "type": "function"
    },
    {
      "inputs": [
        {
          "internalType": "uint256",
          "name": "tokenId",
          "type": "uint256"
        }
      ],
      "name": "getApproved",
      "outputs": [
        {
          "internalType": "address",
          "name": "",
          "type": "address"
        }
      ],
      "stateMutability": "view",
      "type": "function"
    },
    {
      "inputs": [
        {
          "internalType": "address",
          "name": "_owner",
          "type": "address"
        }
      ],
      "name": "getCertificatesByOwner",
      "outputs": [
        {
          "internalType": "uint256[]",
          "name": "",
          "type": "uint256[]"
        }
      ],
      "stateMutability": "view",
      "type": "function"
    },
    {
      "inputs": [
        {
          "internalType": "bytes32",
          "name": "role",
          "type": "bytes32"
        }
      ],
      "name": "getRoleAdmin",
      "outputs": [
        {
          "internalType": "bytes32",
          "name": "",
          "type": "bytes32"
        }
      ],
      "stateMutability": "view",
      "type": "function"
    },
    {
      "inputs": [
        {
          "internalType": "address",
          "name": "schoolAddress",
          "type": "address"
        }
      ],
      "name": "getSchoolName",
      "outputs": [
        {
          "internalType": "string",
          "name": "",
          "type": "string"
        }
      ],
      "stateMutability": "view",
      "type": "function"
    },
    {
      "inputs": [
        {
          "internalType": "bytes32",
          "name": "role",
          "type": "bytes32"
        },
        {
          "internalType": "address",
          "name": "account",
          "type": "address"
        }
      ],
      "name": "grantRole",
      "outputs": [],
      "stateMutability": "nonpayable",
      "type": "function"
    },
    {
      "inputs": [
        {
          "internalType": "bytes32",
          "name": "role",
          "type": "bytes32"
        },
        {
          "internalType": "address",
          "name": "account",
          "type": "address"
        }
      ],
      "name": "hasRole",
      "outputs": [
        {
          "internalType": "bool",
          "name": "",
          "type": "bool"
        }
      ],
      "stateMutability": "view",
      "type": "function"
    },
    {
      "inputs": [
        {
          "internalType": "address",
          "name": "owner",
          "type": "address"
        },
        {
          "internalType": "address",
          "name": "operator",
          "type": "address"
        }
      ],
      "name": "isApprovedForAll",
      "outputs": [
        {
          "internalType": "bool",
          "name": "",
          "type": "bool"
        }
      ],
      "stateMutability": "view",
      "type": "function"
    },
    {
      "inputs": [
        {
          "internalType": "bytes32",
          "name": "",
          "type": "bytes32"
        }
      ],
      "name": "isHashUsed",
      "outputs": [
        {
          "internalType": "bool",
          "name": "",
          "type": "bool"
        }
      ],
      "stateMutability": "view",
      "type": "function"
    },
    {
      "inputs": [
        {
          "internalType": "address",
          "name": "to",
          "type": "address"
        },
        {
          "internalType": "string",
          "name": "uri",
          "type": "string"
        },
        {
          "internalType": "string",
          "name": "_studentName",
          "type": "string"
        },
        {
          "internalType": "string",
          "name": "_degreeName",
          "type": "string"
        },
        {
          "internalType": "bytes32",
          "name": "_fileHash",
          "type": "bytes32"
        }
      ],
      "name": "mint",
      "outputs": [],
      "stateMutability": "nonpayable",
      "type": "function"
    },
    {
      "inputs": [],
      "name": "name",
      "outputs": [
        {
          "internalType": "string",
          "name": "",
          "type": "string"
        }
      ],
      "stateMutability": "view",
      "type": "function"
    },
    {
      "inputs": [
        {
          "internalType": "uint256",
          "name": "tokenId",
          "type": "uint256"
        }
      ],
      "name": "ownerOf",
      "outputs": [
        {
          "internalType": "address",
          "name": "",
          "type": "address"
        }
      ],
      "stateMutability": "view",
      "type": "function"
    },
    {
      "inputs": [
        {
          "internalType": "bytes32",
          "name": "role",
          "type": "bytes32"
        },
        {
          "internalType": "address",
          "name": "callerConfirmation",
          "type": "address"
        }
      ],
      "name": "renounceRole",
      "outputs": [],
      "stateMutability": "nonpayable",
      "type": "function"
    },
    {
      "inputs": [
        {
          "internalType": "uint256",
          "name": "tokenId",
          "type": "uint256"
        }
      ],
      "name": "revoke",
      "outputs": [],
      "stateMutability": "nonpayable",
      "type": "function"
    },
    {
      "inputs": [
        {
          "internalType": "bytes32",
          "name": "role",
          "type": "bytes32"
        },
        {
          "internalType": "address",
          "name": "account",
          "type": "address"
        }
      ],
      "name": "revokeRole",
      "outputs": [],
      "stateMutability": "nonpayable",
      "type": "function"
    },
    {
      "inputs": [
        {
          "internalType": "address",
          "name": "from",
          "type": "address"
        },
        {
          "internalType": "address",
          "name": "to",
          "type": "address"
        },
        {
          "internalType": "uint256",
          "name": "tokenId",
          "type": "uint256"
        }
      ],
      "name": "safeTransferFrom",
      "outputs": [],
      "stateMutability": "nonpayable",
      "type": "function"
    },
    {
      "inputs": [
        {
          "internalType": "address",
          "name": "from",
          "type": "address"
        },
        {
          "internalType": "address",
          "name": "to",
          "type": "address"
        },
        {
          "internalType": "uint256",
          "name": "tokenId",
          "type": "uint256"
        },
        {
          "internalType": "bytes",
          "name": "data",
          "type": "bytes"
        }
      ],
      "name": "safeTransferFrom",
      "outputs": [],
      "stateMutability": "nonpayable",
      "type": "function"
    },
    {
      "inputs": [
        {
          "internalType": "address",
          "name": "",
          "type": "address"
        }
      ],
      "name": "schoolNames",
      "outputs": [
        {
          "internalType": "string",
          "name": "",
          "type": "string"
        }
      ],
      "stateMutability": "view",
      "type": "function"
    },
    {
      "inputs": [
        {
          "internalType": "address",
          "name": "operator",
          "type": "address"
        },
        {
          "internalType": "bool",
          "name": "approved",
          "type": "bool"
        }
      ],
      "name": "setApprovalForAll",
      "outputs": [],
      "stateMutability": "nonpayable",
      "type": "function"
    },
    {
      "inputs": [
        {
          "internalType": "bytes4",
          "name": "interfaceId",
          "type": "bytes4"
        }
      ],
      "name": "supportsInterface",
      "outputs": [
        {
          "internalType": "bool",
          "name": "",
          "type": "bool"
        }
      ],
      "stateMutability": "view",
      "type": "function"
    },
    {
      "inputs": [],
      "name": "symbol",
      "outputs": [
        {
          "internalType": "string",
          "name": "",
          "type": "string"
        }
      ],
      "stateMutability": "view",
      "type": "function"
    },
    {
      "inputs": [
        {
          "internalType": "uint256",
          "name": "tokenId",
          "type": "uint256"
        }
      ],
      "name": "tokenURI",
      "outputs": [
        {
          "internalType": "string",
          "name": "",
          "type": "string"
        }
      ],
      "stateMutability": "view",
      "type": "function"
    },
    {
      "inputs": [
        {
          "internalType": "address",
          "name": "from",
          "type": "address"
        },
        {
          "internalType": "address",
          "name": "to",
          "type": "address"
        },
        {
          "internalType": "uint256",
          "name": "tokenId",
          "type": "uint256"
        }
      ],
      "name": "transferFrom",
      "outputs": [],
      "stateMutability": "nonpayable",
      "type": "function"
    }
  ],
  "bytecode": "0x608060405234801561000f575f5ffd5b506040518060400160405280601381526020017f41636164656d6963436572746966696361746500000000000000000000000000815250604051806040016040528060058152602001641050d1549560da1b815250815f90816100729190610204565b50600161007f8282610204565b5061008e91505f9050336100bf565b506100b97f114e74f6ea3bd819998f78687bfcb11b140da08e9b7d222fa9c1f1ba1f2aa122336100bf565b506102be565b5f8281526007602090815260408083206001600160a01b038516845290915281205460ff16610163575f8381526007602090815260408083206001600160a01b03861684529091529020805460ff1916600117905561011b3390565b6001600160a01b0316826001600160a01b0316847f2f8788117e7eff1d82e926ec794901d17c78024a50270940304540a733656f0d60405160405180910390a4506001610166565b505f5b92915050565b634e487b7160e01b5f52604160045260245ffd5b600181811c9082168061019457607f821691505b6020821081036101b257634e487b7160e01b5f52602260045260245ffd5b50919050565b601f8211156101ff57805f5260205f20601f840160051c810160208510156101dd5750805b601f840160051c820191505b818110156101fc575f81556001016101e9565b50505b505050565b81516001600160401b0381111561021d5761021d61016c565b6102318161022b8454610180565b846101b8565b6020601f821160018114610263575f831561024c5750848201515b5f19600385901b1c1916600184901b1784556101fc565b5f84815260208120601f198516915b828110156102925787850151825560209485019460019092019101610272565b50848210156102af57868401515f19600387901b60f8161c191681555b50505050600190811b01905550565b611f20806102cb5f395ff3fe608060405234801561000f575f5ffd5b50600436106101bb575f3560e01c80636352211e116100f3578063a217fddf11610093578063c57c01151161006e578063c57c0115146103ed578063c87b56dd14610400578063d547741f14610413578063e985e9c514610426575f5ffd5b8063a217fddf146103c0578063a22cb465146103c7578063b88d4fde146103da575f5ffd5b806382aefa24116100ce57806382aefa241461037e5780638fc0859a1461039257806391d14854146103a557806395d89b41146103b8575f5ffd5b80636352211e14610333578063663b3e221461034657806370a082311461036b575f5ffd5b806320021d8b1161015e578063248a9ca311610139578063248a9ca3146102ca5780632f2ff15d146102fa57806336568abe1461030d57806342842e0e14610320575f5ffd5b806320021d8b1461028257806320c5429b146102a457806323b872dd146102b7575f5ffd5b8063095ea7b311610199578063095ea7b3146102275780631883384a1461023c5780631db738401461024f5780631ef0718b1461026f575f5ffd5b806301ffc9a7146101bf57806306fdde03146101e7578063081812fc146101fc575b5f5ffd5b6101d26101cd3660046118b2565b610439565b60405190151581526020015b60405180910390f35b6101ef610449565b6040516101de91906118fb565b61020f61020a36600461190d565b6104d8565b6040516001600160a01b0390911681526020016101de565b61023a61023536600461193f565b6104ff565b005b6101ef61024a366004611967565b61050e565b61026261025d366004611967565b6105b7565b6040516101de9190611980565b61023a61027d366004611a6b565b61061f565b6101d261029036600461190d565b600c6020525f908152604090205460ff1681565b61023a6102b236600461190d565b6107f6565b61023a6102c5366004611b11565b610944565b6102ec6102d836600461190d565b5f9081526007602052604090206001015490565b6040519081526020016101de565b61023a610308366004611b4b565b6109cd565b61023a61031b366004611b4b565b6109f1565b61023a61032e366004611b11565b610a29565b61020f61034136600461190d565b610a43565b61035961035436600461190d565b610a4d565b6040516101de96959493929190611b75565b6102ec610379366004611967565b610b9d565b6102ec5f516020611ecb5f395f51905f5281565b61023a6103a0366004611bca565b610be2565b6101d26103b3366004611b4b565b610c25565b6101ef610c4f565b6102ec5f81565b61023a6103d5366004611c15565b610c5e565b61023a6103e8366004611c4e565b610c69565b6101ef6103fb366004611967565b610c81565b6101ef61040e36600461190d565b610d18565b61023a610421366004611b4b565b610e23565b6101d2610434366004611cc5565b610e47565b5f61044382610e74565b92915050565b60605f805461045790611ced565b80601f016020809104026020016040519081016040528092919081815260200182805461048390611ced565b80156104ce5780601f106104a5576101008083540402835291602001916104ce565b820191905f5260205f20905b8154815290600101906020018083116104b157829003601f168201915b5050505050905090565b5f6104e282610e98565b505f828152600460205260409020546001600160a01b0316610443565b61050a828233610ed0565b5050565b6001600160a01b0381165f908152600a6020526040902080546060919061053490611ced565b80601f016020809104026020016040519081016040528092919081815260200182805461056090611ced565b80156105ab5780601f10610582576101008083540402835291602001916105ab565b820191905f5260205f20905b81548152906001019060200180831161058e57829003601f168201915b50505050509050919050565b6001600160a01b0381165f908152600b60209081526040918290208054835181840281018401909452808452606093928301828280156105ab57602002820191905f5260205f20905b8154815260200190600101908083116106005750505050509050919050565b5f516020611ecb5f395f51905f5261063681610edd565b5f828152600c602052604090205460ff16156106a35760405162461bcd60e51b815260206004820152602160248201527f43657274696669636174655342543a204861736820616c7265616479207573656044820152601960fa1b60648201526084015b60405180910390fd5b600880545f91826106b383611d25565b9190505590506106c38782610eea565b6106cd8187610f03565b6040805160c0810182528681526020808201879052818301869052426060830152336080830152600160a08301525f848152600990915291909120815181906107169082611d8d565b506020820151600182019061072b9082611d8d565b5060408281015160028301556060830151600383015560808301516004909201805460a0909401511515600160a01b026001600160a81b03199094166001600160a01b03938416179390931790925588165f818152600b602090815283822080546001818101835591845282842001869055878352600c90915290839020805460ff19169091179055905182907fb7ff6cbe8f0282bf405f9ce3210be62c5620d39139a49186436e3f0fcc6a315a906107e59089906118fb565b60405180910390a350505050505050565b5f516020611ecb5f395f51905f5261080d81610edd565b5f828152600260205260409020546001600160a01b03166108705760405162461bcd60e51b815260206004820152601960248201527f43657274696669636174655342543a204e6f7420666f756e6400000000000000604482015260640161069a565b5f828152600960205260408120906108888133610c25565b60048301549091506001600160a01b0316331481806108a45750805b6108f05760405162461bcd60e51b815260206004820152601e60248201527f43657274696669636174655342543a204e6f7420617574686f72697a65640000604482015260640161069a565b6108f985610f52565b60028301545f908152600c6020526040808220805460ff1916905551339187917f325c62e70cfaa61cf0709d9607ea9d8451b235297c4b47c65ff6a6449c9faca49190a35050505050565b6001600160a01b03821661096d57604051633250574960e11b81525f600482015260240161069a565b5f610979838333610f8a565b9050836001600160a01b0316816001600160a01b0316146109c7576040516364283d7b60e01b81526001600160a01b038086166004830152602482018490528216604482015260640161069a565b50505050565b5f828152600760205260409020600101546109e781610edd565b6109c78383611024565b6001600160a01b0381163314610a1a5760405163334bd91960e11b815260040160405180910390fd5b610a2482826110b5565b505050565b610a2483838360405180602001604052805f815250610c69565b5f61044382610e98565b60096020525f9081526040902080548190610a6790611ced565b80601f0160208091040260200160405190810160405280929190818152602001828054610a9390611ced565b8015610ade5780601f10610ab557610100808354040283529160200191610ade565b820191905f5260205f20905b815481529060010190602001808311610ac157829003601f168201915b505050505090806001018054610af390611ced565b80601f0160208091040260200160405190810160405280929190818152602001828054610b1f90611ced565b8015610b6a5780601f10610b4157610100808354040283529160200191610b6a565b820191905f5260205f20905b815481529060010190602001808311610b4d57829003601f168201915b5050505060028301546003840154600490940154929390929091506001600160a01b03811690600160a01b900460ff1686565b5f6001600160a01b038216610bc7576040516322718ad960e21b81525f600482015260240161069a565b506001600160a01b03165f9081526003602052604090205490565b5f610bec81610edd565b610c035f516020611ecb5f395f51905f5284611024565b506001600160a01b0383165f908152600a602052604090206109c78382611d8d565b5f9182526007602090815260408084206001600160a01b0393909316845291905290205460ff1690565b60606001805461045790611ced565b61050a338383611120565b610c74848484610944565b6109c733858585856111be565b600a6020525f908152604090208054610c9990611ced565b80601f0160208091040260200160405190810160405280929190818152602001828054610cc590611ced565b8015610d105780601f10610ce757610100808354040283529160200191610d10565b820191905f5260205f20905b815481529060010190602001808311610cf357829003601f168201915b505050505081565b6060610d2382610e98565b505f8281526006602052604081208054610d3c90611ced565b80601f0160208091040260200160405190810160405280929190818152602001828054610d6890611ced565b8015610db35780601f10610d8a57610100808354040283529160200191610db3565b820191905f5260205f20905b815481529060010190602001808311610d9657829003601f168201915b505050505090505f610dcf60408051602081019091525f815290565b905080515f03610de0575092915050565b815115610e12578082604051602001610dfa929190611e5f565b60405160208183030381529060405292505050919050565b610e1b846112e6565b949350505050565b5f82815260076020526040902060010154610e3d81610edd565b6109c783836110b5565b6001600160a01b039182165f90815260056020908152604080832093909416825291909152205460ff1690565b5f6001600160e01b03198216637965db0b60e01b1480610443575061044382611357565b5f818152600260205260408120546001600160a01b03168061044357604051637e27328960e01b81526004810184905260240161069a565b610a24838383600161137b565b610ee7813361147f565b50565b61050a828260405180602001604052805f8152506114b8565b5f828152600660205260409020610f1a8282611d8d565b506040518281527ff8e1a15aba9398e019f0b49df1a4fde98ee17ae345cb5f6b5e2c27f5033e8ce79060200160405180910390a15050565b5f610f5e5f835f610f8a565b90506001600160a01b03811661050a57604051637e27328960e01b81526004810183905260240161069a565b5f5f610f978585856114cf565b90506001600160a01b03811615801590610fb957506001600160a01b03851615155b15610e1b5760405162461bcd60e51b815260206004820152603560248201527f43657274696669636174655342543a20536f756c626f756e6420746f6b656e2060448201527418d85b9b9bdd081899481d1c985b9cd9995c9c9959605a1b606482015260840161069a565b5f61102f8383610c25565b6110ae575f8381526007602090815260408083206001600160a01b03861684529091529020805460ff191660011790556110663390565b6001600160a01b0316826001600160a01b0316847f2f8788117e7eff1d82e926ec794901d17c78024a50270940304540a733656f0d60405160405180910390a4506001610443565b505f610443565b5f6110c08383610c25565b156110ae575f8381526007602090815260408083206001600160a01b0386168085529252808320805460ff1916905551339286917ff6391f5c32d9c69d2a47ea670b442974b53935d1edc7fd64eb21e047a839171b9190a4506001610443565b6001600160a01b03821661115257604051630b61174360e31b81526001600160a01b038316600482015260240161069a565b6001600160a01b038381165f81815260056020908152604080832094871680845294825291829020805460ff191686151590811790915591519182527f17307eab39ab6107e8899845ad3d59bd9653f200f220920489ca2b5937696c31910160405180910390a3505050565b6001600160a01b0383163b156112df57604051630a85bd0160e11b81526001600160a01b0384169063150b7a0290611200908890889087908790600401611e73565b6020604051808303815f875af192505050801561123a575060408051601f3d908101601f1916820190925261123791810190611eaf565b60015b6112a1573d808015611267576040519150601f19603f3d011682016040523d82523d5f602084013e61126c565b606091505b5080515f0361129957604051633250574960e11b81526001600160a01b038516600482015260240161069a565b805160208201fd5b6001600160e01b03198116630a85bd0160e11b146112dd57604051633250574960e11b81526001600160a01b038516600482015260240161069a565b505b5050505050565b60606112f182610e98565b505f61130760408051602081019091525f815290565b90505f8151116113255760405180602001604052805f815250611350565b8061132f846115c1565b604051602001611340929190611e5f565b6040516020818303038152906040525b9392505050565b5f6001600160e01b03198216632483248360e11b1480610443575061044382611651565b808061138f57506001600160a01b03821615155b15611450575f61139e84610e98565b90506001600160a01b038316158015906113ca5750826001600160a01b0316816001600160a01b031614155b80156113dd57506113db8184610e47565b155b156114065760405163a9fbf51f60e01b81526001600160a01b038416600482015260240161069a565b811561144e5783856001600160a01b0316826001600160a01b03167f8c5be1e5ebec7d5bd14f71427d1e84f3dd0314c0f7b2291e5b200ac8c7c3b92560405160405180910390a45b505b50505f90815260046020526040902080546001600160a01b0319166001600160a01b0392909216919091179055565b6114898282610c25565b61050a5760405163e2517d3f60e01b81526001600160a01b03821660048201526024810183905260440161069a565b6114c283836116a0565b610a24335f8585856111be565b5f828152600260205260408120546001600160a01b03908116908316156114fb576114fb818486611701565b6001600160a01b03811615611535576115165f855f5f61137b565b6001600160a01b0381165f90815260036020526040902080545f190190555b6001600160a01b03851615611563576001600160a01b0385165f908152600360205260409020805460010190555b5f8481526002602052604080822080546001600160a01b0319166001600160a01b0389811691821790925591518793918516917fddf252ad1be2c89b69c2b068fc378daa952ba7f163c4a11628f55a4df523b3ef91a4949350505050565b60605f6115cd83611765565b60010190505f8167ffffffffffffffff8111156115ec576115ec6119c2565b6040519080825280601f01601f191660200182016040528015611616576020820181803683370190505b5090508181016020015b5f19016f181899199a1a9b1b9c1cb0b131b232b360811b600a86061a8153600a850494508461162057509392505050565b5f6001600160e01b031982166380ac58cd60e01b148061168157506001600160e01b03198216635b5e139f60e01b145b8061044357506301ffc9a760e01b6001600160e01b0319831614610443565b6001600160a01b0382166116c957604051633250574960e11b81525f600482015260240161069a565b5f6116d583835f610f8a565b90506001600160a01b03811615610a24576040516339e3563760e11b81525f600482015260240161069a565b61170c83838361183c565b610a24576001600160a01b03831661173a57604051637e27328960e01b81526004810182905260240161069a565b60405163177e802f60e01b81526001600160a01b03831660048201526024810182905260440161069a565b5f8072184f03e93ff9f4daa797ed6e38ed64bf6a1f0160401b83106117a35772184f03e93ff9f4daa797ed6e38ed64bf6a1f0160401b830492506040015b6d04ee2d6d415b85acef810000000083106117cf576d04ee2d6d415b85acef8100000000830492506020015b662386f26fc1000083106117ed57662386f26fc10000830492506010015b6305f5e1008310611805576305f5e100830492506008015b612710831061181957612710830492506004015b6064831061182b576064830492506002015b600a83106104435760010192915050565b5f6001600160a01b03831615801590610e1b5750826001600160a01b0316846001600160a01b0316148061187557506118758484610e47565b80610e1b5750505f908152600460205260409020546001600160a01b03908116911614919050565b6001600160e01b031981168114610ee7575f5ffd5b5f602082840312156118c2575f5ffd5b81356113508161189d565b5f81518084528060208401602086015e5f602082860101526020601f19601f83011685010191505092915050565b602081525f61135060208301846118cd565b5f6020828403121561191d575f5ffd5b5035919050565b80356001600160a01b038116811461193a575f5ffd5b919050565b5f5f60408385031215611950575f5ffd5b61195983611924565b946020939093013593505050565b5f60208284031215611977575f5ffd5b61135082611924565b602080825282518282018190525f918401906040840190835b818110156119b7578351835260209384019390920191600101611999565b509095945050505050565b634e487b7160e01b5f52604160045260245ffd5b5f5f67ffffffffffffffff8411156119f0576119f06119c2565b50604051601f19601f85018116603f0116810181811067ffffffffffffffff82111715611a1f57611a1f6119c2565b604052838152905080828401851015611a36575f5ffd5b838360208301375f60208583010152509392505050565b5f82601f830112611a5c575f5ffd5b611350838335602085016119d6565b5f5f5f5f5f60a08688031215611a7f575f5ffd5b611a8886611924565b9450602086013567ffffffffffffffff811115611aa3575f5ffd5b611aaf88828901611a4d565b945050604086013567ffffffffffffffff811115611acb575f5ffd5b611ad788828901611a4d565b935050606086013567ffffffffffffffff811115611af3575f5ffd5b611aff88828901611a4d565b95989497509295608001359392505050565b5f5f5f60608486031215611b23575f5ffd5b611b2c84611924565b9250611b3a60208501611924565b929592945050506040919091013590565b5f5f60408385031215611b5c575f5ffd5b82359150611b6c60208401611924565b90509250929050565b60c081525f611b8760c08301896118cd565b8281036020840152611b9981896118cd565b6040840197909752505060608101939093526001600160a01b03919091166080830152151560a09091015292915050565b5f5f60408385031215611bdb575f5ffd5b611be483611924565b9150602083013567ffffffffffffffff811115611bff575f5ffd5b611c0b85828601611a4d565b9150509250929050565b5f5f60408385031215611c26575f5ffd5b611c2f83611924565b915060208301358015158114611c43575f5ffd5b809150509250929050565b5f5f5f5f60808587031215611c61575f5ffd5b611c6a85611924565b9350611c7860208601611924565b925060408501359150606085013567ffffffffffffffff811115611c9a575f5ffd5b8501601f81018713611caa575f5ffd5b611cb9878235602084016119d6565b91505092959194509250565b5f5f60408385031215611cd6575f5ffd5b611cdf83611924565b9150611b6c60208401611924565b600181811c90821680611d0157607f821691505b602082108103611d1f57634e487b7160e01b5f52602260045260245ffd5b50919050565b5f60018201611d4257634e487b7160e01b5f52601160045260245ffd5b5060010190565b601f821115610a2457805f5260205f20601f840160051c81016020851015611d6e5750805b601f840160051c820191505b818110156112df575f8155600101611d7a565b815167ffffffffffffffff811115611da757611da76119c2565b611dbb81611db58454611ced565b84611d49565b6020601f821160018114611ded575f8315611dd65750848201515b5f19600385901b1c1916600184901b1784556112df565b5f84815260208120601f198516915b82811015611e1c5787850151825560209485019460019092019101611dfc565b5084821015611e3957868401515f19600387901b60f8161c191681555b50505050600190811b01905550565b5f81518060208401855e5f93019283525090919050565b5f610e1b611e6d8386611e48565b84611e48565b6001600160a01b03858116825284166020820152604081018390526080606082018190525f90611ea5908301846118cd565b9695505050505050565b5f60208284031215611ebf575f5ffd5b81516113508161189d56fe114e74f6ea3bd819998f78687bfcb11b140da08e9b7d222fa9c1f1ba1f2aa122a2646970667358221220a2f85ea64ebd7b037d56e45e0da521abaffa40631d4ab92f3629be6bcae8f94564736f6c634300081c0033",
  "linkReferences": {},
  "deployedLinkReferences": {},
  "immutableReferences": {},
  "inputSourceName": "project/contracts/CertificateSBT.sol",
  "buildInfoId": "solc-0_8_28-b0a90c12a0449e8011d1237412987cfaf5d03865"
}