{
  "_format": "hh3-artifact-1",
  "contractName": "CertificateSBT",
  "sourceName": "contracts/CertificateSBT.sol",
  "abi": [
    {
      "inputs": [],
      "stateMutability": "nonpayable",
      "type": "constructor"
    },
    {
      "inputs": [],
      "name": "AccessControlBadConfirmation",
      "type": "error"
    },
    {
      "inputs": [
        {
          "internalType": "address",
          "name": "account",
          "type": "address"
        },
        {
          "internalType": "bytes32",
          "name": "neededRole",
          "type": "bytes32"
        }
      ],
      "name": "AccessControlUnauthorizedAccount",
      "type": "error"
    },
    {
      "inputs": [
        {
          "internalType": "address",
          "name": "sender",
          "type": "address"
        },
        {
          "internalType": "uint256",
          "name": "tokenId",
          "type": "uint256"
        },
        {
          "internalType": "address",
          "name": "owner",
          "type": "address"
        }
      ],
      "name": "ERC721IncorrectOwner",
      "type": "error"
    },
    {
      "inputs": [
        {
          "internalType": "address",
          "name": "operator",
          "type": "address"
        },
        {
          "internalType": "uint256",
          "name": "tokenId",
          "type": "uint256"
        }
      ],
      "name": "ERC721InsufficientApproval",
      "type": "error"
    },
    {
      "inputs": [
        {
          "internalType": "address",
          "name": "approver",
          "type": "address"
        }
      ],
      "name": "ERC721InvalidApprover",
      "type": "error"
    },
    {
      "inputs": [
        {
          "internalType": "address",
          "name": "operator",
          "type": "address"
        }
      ],
      "name": "ERC721InvalidOperator",
      "type": "error"
    },
    {
      "inputs": [
        {
          "internalType": "address",
          "name": "owner",
          "type": "address"
        }
      ],
      "name": "ERC721InvalidOwner",
      "type": "error"
    },
    {
      "inputs": [
        {
          "internalType": "address",
          "name": "receiver",
          "type": "address"
        }
      ],
      "name": "ERC721InvalidReceiver",
      "type": "error"
    },
    {
      "inputs": [
        {
          "internalType": "address",
          "name": "sender",
          "type": "address"
        }
      ],
      "name": "ERC721InvalidSender",
      "type": "error"
    },
    {
      "inputs": [
        {
          "internalType": "uint256",
          "name": "tokenId",
          "type": "uint256"
        }
      ],
      "name": "ERC721NonexistentToken",
      "type": "error"
    },
    {
      "anonymous": false,
      "inputs": [
        {
          "indexed": true,
          "internalType": "address",
          "name": "owner",
          "type": "address"
        },
        {
          "indexed": true,
          "internalType": "address",
          "name": "approved",
          "type": "address"
        },
        {
          "indexed": true,
          "internalType": "uint256",
          "name": "tokenId",
          "type": "uint256"
        }
      ],
      "name": "Approval",
      "type": "event"
    },
    {
      "anonymous": false,
      "inputs": [
        {
          "indexed": true,
          "internalType": "address",
          "name": "owner",
          "type": "address"
        },
        {
          "indexed": true,
          "internalType": "address",
          "name": "operator",
          "type": "address"
        },
        {
          "indexed": false,
          "internalType": "bool",
          "name": "approved",
          "type": "bool"
        }
      ],
      "name": "ApprovalForAll",
      "type": "event"
    },
    {
      "anonymous": false,
      "inputs": [
        {
          "indexed": false,
          "internalType": "uint256",
          "name": "_fromTokenId",
          "type": "uint256"
        },
        {
          "indexed": false,
          "internalType": "uint256",
          "name": "_toTokenId",
          "type": "uint256"
        }
      ],
      "name": "BatchMetadataUpdate",
      "type": "event"
    },
    {
      "anonymous": false,
      "inputs": [
        {
          "indexed": true,
          "internalType": "uint256",
          "name": "tokenId",
          "type": "uint256"
        },
        {
          "indexed": true,
          "internalType": "address",
          "name": "student",
          "type": "address"
        },
        {
          "indexed": false,
          "internalType": "string",
          "name": "studentName",
          "type": "string"
        }
      ],
      "name": "CertificateIssued",
      "type": "event"
    },
    {
      "anonymous": false,
      "inputs": [
        {
          "indexed": true,
          "internalType": "uint256",
          "name": "tokenId",
          "type": "uint256"
        },
        {
          "indexed": true,
          "internalType": "address",
          "name": "revoker",
          "type": "address"
        }
      ],
      "name": "CertificateRevoked",
      "type": "event"
    },
    {
      "anonymous": false,
      "inputs": [
        {
          "indexed": false,
          "internalType": "uint256",
          "name": "_tokenId",
          "type": "uint256"
        }
      ],
      "name": "MetadataUpdate",
      "type": "event"
    },
    {
      "anonymous": false,
      "inputs": [
        {
          "indexed": true,
          "internalType": "bytes32",
          "name": "role",
          "type": "bytes32"
        },
        {
          "indexed": true,
          "internalType": "bytes32",
          "name": "previousAdminRole",
          "type": "bytes32"
        },
        {
          "indexed": true,
          "internalType": "bytes32",
          "name": "newAdminRole",
          "type": "bytes32"
        }
      ],
      "name": "RoleAdminChanged",
      "type": "event"
    },
    {
      "anonymous": false,
      "inputs": [
        {
          "indexed": true,
          "internalType": "bytes32",
          "name": "role",
          "type": "bytes32"
        },
        {
          "indexed": true,
          "internalType": "address",
          "name": "account",
          "type": "address"
        },
        {
          "indexed": true,
          "internalType": "address",
          "name": "sender",
          "type": "address"
        }
      ],
      "name": "RoleGranted",
      "type": "event"
    },
    {
      "anonymous": false,
      "inputs": [
        {
          "indexed": true,
          "internalType": "bytes32",
          "name": "role",
          "type": "bytes32"
        },
        {
          "indexed": true,
          "internalType": "address",
          "name": "account",
          "type": "address"
        },
        {
          "indexed": true,
          "internalType": "address",
          "name": "sender",
          "type": "address"
        }
      ],
      "name": "RoleRevoked",
      "type": "event"
    },
    {
      "anonymous": false,
      "inputs": [
        {
          "indexed": true,
          "internalType": "address",
          "name": "from",
          "type": "address"
        },
        {
          "indexed": true,
          "internalType": "address",
          "name": "to",
          "type": "address"
        },
        {
          "indexed": true,
          "internalType": "uint256",
          "name": "tokenId",
          "type": "uint256"
        }
      ],
      "name": "Transfer",
      "type": "event"
    },
    {
      "inputs": [],
      "name": "DEFAULT_ADMIN_ROLE",
      "outputs": [
        {
          "internalType": "bytes32",
          "name": "",
          "type": "bytes32"
        }
      ],
      "stateMutability": "view",
      "type": "function"
    },
    {
      "inputs": [],
      "name": "ISSUER_ROLE",
      "outputs": [
        {
          "internalType": "bytes32",
          "name": "",
          "type": "bytes32"
        }
      ],
      "stateMutability": "view",
      "type": "function"
    },
    {
      "inputs": [
        {
          "internalType": "address",
          "name": "_school",
          "type": "address"
        },
        {
          "internalType": "string",
          "name": "_name",
          "type": "string"
        }
      ],
      "name": "addIssuer",
      "outputs": [],
      "stateMutability": "nonpayable",
      "type": "function"
    },
    {
      "inputs": [
        {
          "internalType": "uint256",
          "name": "",
          "type": "uint256"
        }
      ],
      "name": "allIssuers",
      "outputs": [
        {
          "internalType": "address",
          "name": "",
          "type": "address"
        }
      ],
      "stateMutability": "view",
      "type": "function"
    },
    {
      "inputs": [
        {
          "internalType": "address",
          "name": "to",
          "type": "address"
        },
        {
          "internalType": "uint256",
          "name": "tokenId",
          "type": "uint256"
        }
      ],
      "name": "approve",
      "outputs": [],
      "stateMutability": "nonpayable",
      "type": "function"
    },
    {
      "inputs": [
        {
          "internalType": "address",
          "name": "owner",
          "type": "address"
        }
      ],
      "name": "balanceOf",
      "outputs": [
        {
          "internalType": "uint256",
          "name": "",
          "type": "uint256"
        }
      ],
      "stateMutability": "view",
      "type": "function"
    },
    {
      "inputs": [
        {
          "internalType": "address[]",
          "name": "tos",
          "type": "address[]"
        },
        {
          "internalType": "string[]",
          "name": "uris",
          "type": "string[]"
        },
        {
          "internalType": "string[]",
          "name": "names",
          "type": "string[]"
        },
        {
          "internalType": "string[]",
          "name": "degrees",
          "type": "string[]"
        },
        {
          "internalType": "bytes32[]",
          "name": "hashes",
          "type": "bytes32[]"
        },
        {
          "internalType": "string[]",
          "name": "dobs",
          "type": "string[]"
        },
        {
          "internalType": "string[]",
          "name": "classes",
          "type": "string[]"
        },
        {
          "internalType": "string[]",
          "name": "forms",
          "type": "string[]"
        },
        {
          "internalType": "string[]",
          "name": "gradYears",
          "type": "string[]"
        }
      ],
      "name": "batchMint",
      "outputs": [],
      "stateMutability": "nonpayable",
      "type": "function"
    },
    {
      "inputs": [
        {
          "internalType": "uint256",
          "name": "",
          "type": "uint256"
        }
      ],
      "name": "certificates",
      "outputs": [
        {
          "internalType": "string",
          "name": "studentName",
          "type": "string"
        },
        {
          "internalType": "string",
          "name": "degreeName",
          "type": "string"
        },
        {
          "internalType": "bytes32",
          "name": "fileHash",
          "type": "bytes32"
        },
        {
          "internalType": "uint256",
          "name": "issueDate",
          "type": "uint256"
        },
        {
          "internalType": "address",
          "name": "issuer",
          "type": "address"
        },
        {
          "internalType": "bool",
          "name": "isValid",
          "type": "bool"
        },
        {
          "internalType": "string",
          "name": "dateOfBirth",
          "type": "string"
        },
        {
          "internalType": "string",
          "name": "classification",
          "type": "string"
        },
        {
          "internalType": "string",
          "name": "formOfTraining",
          "type": "string"
        },
        {
          "internalType": "string",
          "name": "graduationYear",
          "type": "string"
        }
      ],
      "stateMutability": "view",
      "type": "function"
    },
    {
      "inputs": [],
      "name": "getAllIssuers",
      "outputs": [
        {
          "internalType": "address[]",
          "name": "",
          "type": "address[]"
        }
      ],
      "stateMutability": "view",
      "type": "function"
    },
    {
      "inputs": [
        {
          "internalType": "uint256",
          "name": "tokenId",
          "type": "uint256"
        }
      ],
      "name": "getApproved",
      "outputs": [
        {
          "internalType": "address",
          "name": "",
          "type": "address"
        }
      ],
      "stateMutability": "view",
      "type": "function"
    },
    {
      "inputs": [
        {
          "internalType": "address",
          "name": "_owner",
          "type": "address"
        }
      ],
      "name": "getCertificatesByOwner",
      "outputs": [
        {
          "internalType": "uint256[]",
          "name": "",
          "type": "uint256[]"
        }
      ],
      "stateMutability": "view",
      "type": "function"
    },
    {
      "inputs": [
        {
          "internalType": "address",
          "name": "_issuer",
          "type": "address"
        }
      ],
      "name": "getIssuedCertificates",
      "outputs": [
        {
          "internalType": "uint256[]",
          "name": "",
          "type": "uint256[]"
        }
      ],
      "stateMutability": "view",
      "type": "function"
    },
    {
      "inputs": [
        {
          "internalType": "bytes32",
          "name": "role",
          "type": "bytes32"
        }
      ],
      "name": "getRoleAdmin",
      "outputs": [
        {
          "internalType": "bytes32",
          "name": "",
          "type": "bytes32"
        }
      ],
      "stateMutability": "view",
      "type": "function"
    },
    {
      "inputs": [
        {
          "internalType": "address",
          "name": "schoolAddress",
          "type": "address"
        }
      ],
      "name": "getSchoolName",
      "outputs": [
        {
          "internalType": "string",
          "name": "",
          "type": "string"
        }
      ],
      "stateMutability": "view",
      "type": "function"
    },
    {
      "inputs": [
        {
          "internalType": "bytes32",
          "name": "role",
          "type": "bytes32"
        },
        {
          "internalType": "address",
          "name": "account",
          "type": "address"
        }
      ],
      "name": "grantRole",
      "outputs": [],
      "stateMutability": "nonpayable",
      "type": "function"
    },
    {
      "inputs": [
        {
          "internalType": "bytes32",
          "name": "role",
          "type": "bytes32"
        },
        {
          "internalType": "address",
          "name": "account",
          "type": "address"
        }
      ],
      "name": "hasRole",
      "outputs": [
        {
          "internalType": "bool",
          "name": "",
          "type": "bool"
        }
      ],
      "stateMutability": "view",
      "type": "function"
    },
    {
      "inputs": [
        {
          "internalType": "bytes32",
          "name": "",
          "type": "bytes32"
        }
      ],
      "name": "hashToTokenId",
      "outputs": [
        {
          "internalType": "uint256",
          "name": "",
          "type": "uint256"
        }
      ],
      "stateMutability": "view",
      "type": "function"
    },
    {
      "inputs": [
        {
          "internalType": "address",
          "name": "owner",
          "type": "address"
        },
        {
          "internalType": "address",
          "name": "operator",
          "type": "address"
        }
      ],
      "name": "isApprovedForAll",
      "outputs": [
        {
          "internalType": "bool",
          "name": "",
          "type": "bool"
        }
      ],
      "stateMutability": "view",
      "type": "function"
    },
    {
      "inputs": [
        {
          "internalType": "bytes32",
          "name": "",
          "type": "bytes32"
        }
      ],
      "name": "isHashUsed",
      "outputs": [
        {
          "internalType": "bool",
          "name": "",
          "type": "bool"
        }
      ],
      "stateMutability": "view",
      "type": "function"
    },
    {
      "inputs": [
        {
          "internalType": "address",
          "name": "to",
          "type": "address"
        },
        {
          "internalType": "string",
          "name": "uri",
          "type": "string"
        },
        {
          "internalType": "string",
          "name": "_studentName",
          "type": "string"
        },
        {
          "internalType": "string",
          "name": "_degreeName",
          "type": "string"
        },
        {
          "internalType": "bytes32",
          "name": "_fileHash",
          "type": "bytes32"
        },
        {
          "internalType": "string",
          "name": "_dateOfBirth",
          "type": "string"
        },
        {
          "internalType": "string",
          "name": "_classification",
          "type": "string"
        },
        {
          "internalType": "string",
          "name": "_formOfTraining",
          "type": "string"
        },
        {
          "internalType": "string",
          "name": "_graduationYear",
          "type": "string"
        }
      ],
      "name": "mint",
      "outputs": [],
      "stateMutability": "nonpayable",
      "type": "function"
    },
    {
      "inputs": [],
      "name": "name",
      "outputs": [
        {
          "internalType": "string",
          "name": "",
          "type": "string"
        }
      ],
      "stateMutability": "view",
      "type": "function"
    },
    {
      "inputs": [
        {
          "internalType": "uint256",
          "name": "tokenId",
          "type": "uint256"
        }
      ],
      "name": "ownerOf",
      "outputs": [
        {
          "internalType": "address",
          "name": "",
          "type": "address"
        }
      ],
      "stateMutability": "view",
      "type": "function"
    },
    {
      "inputs": [
        {
          "internalType": "bytes32",
          "name": "role",
          "type": "bytes32"
        },
        {
          "internalType": "address",
          "name": "callerConfirmation",
          "type": "address"
        }
      ],
      "name": "renounceRole",
      "outputs": [],
      "stateMutability": "nonpayable",
      "type": "function"
    },
    {
      "inputs": [
        {
          "internalType": "uint256",
          "name": "tokenId",
          "type": "uint256"
        }
      ],
      "name": "revoke",
      "outputs": [],
      "stateMutability": "nonpayable",
      "type": "function"
    },
    {
      "inputs": [
        {
          "internalType": "bytes32",
          "name": "role",
          "type": "bytes32"
        },
        {
          "internalType": "address",
          "name": "account",
          "type": "address"
        }
      ],
      "name": "revokeRole",
      "outputs": [],
      "stateMutability": "nonpayable",
      "type": "function"
    },
    {
      "inputs": [
        {
          "internalType": "address",
          "name": "from",
          "type": "address"
        },
        {
          "internalType": "address",
          "name": "to",
          "type": "address"
        },
        {
          "internalType": "uint256",
          "name": "tokenId",
          "type": "uint256"
        }
      ],
      "name": "safeTransferFrom",
      "outputs": [],
      "stateMutability": "nonpayable",
      "type": "function"
    },
    {
      "inputs": [
        {
          "internalType": "address",
          "name": "from",
          "type": "address"
        },
        {
          "internalType": "address",
          "name": "to",
          "type": "address"
        },
        {
          "internalType": "uint256",
          "name": "tokenId",
          "type": "uint256"
        },
        {
          "internalType": "bytes",
          "name": "data",
          "type": "bytes"
        }
      ],
      "name": "safeTransferFrom",
      "outputs": [],
      "stateMutability": "nonpayable",
      "type": "function"
    },
    {
      "inputs": [
        {
          "internalType": "address",
          "name": "",
          "type": "address"
        }
      ],
      "name": "schoolNames",
      "outputs": [
        {
          "internalType": "string",
          "name": "",
          "type": "string"
        }
      ],
      "stateMutability": "view",
      "type": "function"
    },
    {
      "inputs": [
        {
          "internalType": "address",
          "name": "operator",
          "type": "address"
        },
        {
          "internalType": "bool",
          "name": "approved",
          "type": "bool"
        }
      ],
      "name": "setApprovalForAll",
      "outputs": [],
      "stateMutability": "nonpayable",
      "type": "function"
    },
    {
      "inputs": [
        {
          "internalType": "bytes4",
          "name": "interfaceId",
          "type": "bytes4"
        }
      ],
      "name": "supportsInterface",
      "outputs": [
        {
          "internalType": "bool",
          "name": "",
          "type": "bool"
        }
      ],
      "stateMutability": "view",
      "type": "function"
    },
    {
      "inputs": [],
      "name": "symbol",
      "outputs": [
        {
          "internalType": "string",
          "name": "",
          "type": "string"
        }
      ],
      "stateMutability": "view",
      "type": "function"
    },
    {
      "inputs": [
        {
          "internalType": "uint256",
          "name": "tokenId",
          "type": "uint256"
        }
      ],
      "name": "tokenURI",
      "outputs": [
        {
          "internalType": "string",
          "name": "",
          "type": "string"
        }
      ],
      "stateMutability": "view",
      "type": "function"
    },
    {
      "inputs": [
        {
          "internalType": "address",
          "name": "from",
          "type": "address"
        },
        {
          "internalType": "address",
          "name": "to",
          "type": "address"
        },
        {
          "internalType": "uint256",
          "name": "tokenId",
          "type": "uint256"
        }
      ],
      "name": "transferFrom",
      "outputs": [],
      "stateMutability": "nonpayable",
      "type": "function"
    }
  ],
  "bytecode": "0x608060405234801561000f575f5ffd5b506040518060400160405280601381526020017f41636164656d6963436572746966696361746500000000000000000000000000815250604051806040016040528060058152602001641050d1549560da1b815250815f90816100729190610291565b50600161007f8282610291565b5061008e91505f90503361014c565b506100b97f114e74f6ea3bd819998f78687bfcb11b140da08e9b7d222fa9c1f1ba1f2aa1223361014c565b50600e8054600181019091557fbb7b4a454dc3493923482f07822329ed19e8244eff582cc204f8554c3620c3fd0180546001600160a01b03191633908117909155604080518082018252601481527f44656661756c742053797374656d2041646d696e0000000000000000000000006020828101919091525f938452600a90529120906101469082610291565b5061034b565b5f8281526007602090815260408083206001600160a01b038516845290915281205460ff166101f0575f8381526007602090815260408083206001600160a01b03861684529091529020805460ff191660011790556101a83390565b6001600160a01b0316826001600160a01b0316847f2f8788117e7eff1d82e926ec794901d17c78024a50270940304540a733656f0d60405160405180910390a45060016101f3565b505f5b92915050565b634e487b7160e01b5f52604160045260245ffd5b600181811c9082168061022157607f821691505b60208210810361023f57634e487b7160e01b5f52602260045260245ffd5b50919050565b601f82111561028c57805f5260205f20601f840160051c8101602085101561026a5750805b601f840160051c820191505b81811015610289575f8155600101610276565b50505b505050565b81516001600160401b038111156102aa576102aa6101f9565b6102be816102b8845461020d565b84610245565b6020601f8211600181146102f0575f83156102d95750848201515b5f19600385901b1c1916600184901b178455610289565b5f84815260208120601f198516915b8281101561031f57878501518255602094850194600190920191016102ff565b508482101561033c57868401515f19600387901b60f8161c191681555b50505050600190811b01905550565b61295b806103585f395ff3fe608060405234801561000f575f5ffd5b50600436106101f2575f3560e01c80636aeafa4a11610114578063b442fc61116100a9578063c60eab8511610079578063c60eab8514610476578063c87b56dd14610489578063d547741f1461049c578063e985e9c5146104af578063f51f74a9146104c2575f5ffd5b8063b442fc611461042a578063b5d7e6d81461043d578063b88d4fde14610450578063c57c011514610463575f5ffd5b806391d14854116100e457806391d14854146103f557806395d89b4114610408578063a217fddf14610410578063a22cb46514610417575f5ffd5b80636aeafa4a146103a857806370a08231146103bb57806382aefa24146103ce5780638fc0859a146103e2575f5ffd5b806323b872dd1161018a57806342842e0e1161015a57806342842e0e146103445780634c32c35c146103575780636352211e1461036c578063663b3e221461037f575f5ffd5b806323b872dd146102db578063248a9ca3146102ee5780632f2ff15d1461031e57806336568abe14610331575f5ffd5b80631883384a116101c55780631883384a146102735780631db738401461028657806320021d8b146102a657806320c5429b146102c8575f5ffd5b806301ffc9a7146101f657806306fdde031461021e578063081812fc14610233578063095ea7b31461025e575b5f5ffd5b610209610204366004611eaf565b6104e1565b60405190151581526020015b60405180910390f35b6102266104f1565b6040516102159190611ef8565b610246610241366004611f0a565b610580565b6040516001600160a01b039091168152602001610215565b61027161026c366004611f3c565b6105a7565b005b610226610281366004611f64565b6105b6565b610299610294366004611f64565b61065f565b6040516102159190611f7d565b6102096102b4366004611f0a565b600f6020525f908152604090205460ff1681565b6102716102d6366004611f0a565b6106c7565b6102716102e9366004611fbf565b610808565b6103106102fc366004611f0a565b5f9081526007602052604090206001015490565b604051908152602001610215565b61027161032c366004611ff9565b610891565b61027161033f366004611ff9565b6108b5565b610271610352366004611fbf565b6108ed565b61035f610907565b6040516102159190612023565b61024661037a366004611f0a565b610966565b61039261038d366004611f0a565b610970565b6040516102159a99989796959493929190612063565b6102716103b6366004612337565b610cf2565b6103106103c9366004611f64565b610e64565b6103105f5160206129065f395f51905f5281565b6102716103f03660046124ba565b610ea9565b610209610403366004611ff9565b610f52565b610226610f7c565b6103105f81565b610271610425366004612504565b610f8b565b610246610438366004611f0a565b610f96565b61027161044b36600461253d565b610fbe565b61027161045e366004612677565b611238565b610226610471366004611f64565b611250565b610299610484366004611f64565b6112e7565b610226610497366004611f0a565b61134e565b6102716104aa366004611ff9565b611459565b6102096104bd3660046126ed565b61147d565b6103106104d0366004611f0a565b600d6020525f908152604090205481565b5f6104eb826114aa565b92915050565b60605f80546104ff90612715565b80601f016020809104026020016040519081016040528092919081815260200182805461052b90612715565b80156105765780601f1061054d57610100808354040283529160200191610576565b820191905f5260205f20905b81548152906001019060200180831161055957829003601f168201915b5050505050905090565b5f61058a826114ce565b505f828152600460205260409020546001600160a01b03166104eb565b6105b2828233611506565b5050565b6001600160a01b0381165f908152600a602052604090208054606091906105dc90612715565b80601f016020809104026020016040519081016040528092919081815260200182805461060890612715565b80156106535780601f1061062a57610100808354040283529160200191610653565b820191905f5260205f20905b81548152906001019060200180831161063657829003601f168201915b50505050509050919050565b6001600160a01b0381165f908152600b602090815260409182902080548351818402810184019094528084526060939283018282801561065357602002820191905f5260205f20905b8154815260200190600101908083116106a85750505050509050919050565b5f5160206129065f395f51905f526106de81611513565b5f828152600260205260409020546001600160a01b03166107465760405162461bcd60e51b815260206004820152601960248201527f43657274696669636174655342543a204e6f7420666f756e640000000000000060448201526064015b60405180910390fd5b5f8281526009602052604081209061075e8133610f52565b60048301549091506001600160a01b03163314818061077a5750805b6107c65760405162461bcd60e51b815260206004820152601e60248201527f43657274696669636174655342543a204e6f7420617574686f72697a65640000604482015260640161073d565b60048301805460ff60a01b19169055604051339086907f325c62e70cfaa61cf0709d9607ea9d8451b235297c4b47c65ff6a6449c9faca4905f90a35050505050565b6001600160a01b03821661083157604051633250574960e11b81525f600482015260240161073d565b5f61083d838333611520565b9050836001600160a01b0316816001600160a01b03161461088b576040516364283d7b60e01b81526001600160a01b038086166004830152602482018490528216604482015260640161073d565b50505050565b5f828152600760205260409020600101546108ab81611513565b61088b83836115ba565b6001600160a01b03811633146108de5760405163334bd91960e11b815260040160405180910390fd5b6108e8828261164b565b505050565b6108e883838360405180602001604052805f815250611238565b6060600e80548060200260200160405190810160405280929190818152602001828054801561057657602002820191905f5260205f20905b81546001600160a01b0316815260019091019060200180831161093f575050505050905090565b5f6104eb826114ce565b60096020525f908152604090208054819061098a90612715565b80601f01602080910402602001604051908101604052809291908181526020018280546109b690612715565b8015610a015780601f106109d857610100808354040283529160200191610a01565b820191905f5260205f20905b8154815290600101906020018083116109e457829003601f168201915b505050505090806001018054610a1690612715565b80601f0160208091040260200160405190810160405280929190818152602001828054610a4290612715565b8015610a8d5780601f10610a6457610100808354040283529160200191610a8d565b820191905f5260205f20905b815481529060010190602001808311610a7057829003601f168201915b50505050600283015460038401546004850154600586018054959693959294506001600160a01b03821693600160a01b90920460ff1692610acd90612715565b80601f0160208091040260200160405190810160405280929190818152602001828054610af990612715565b8015610b445780601f10610b1b57610100808354040283529160200191610b44565b820191905f5260205f20905b815481529060010190602001808311610b2757829003601f168201915b505050505090806006018054610b5990612715565b80601f0160208091040260200160405190810160405280929190818152602001828054610b8590612715565b8015610bd05780601f10610ba757610100808354040283529160200191610bd0565b820191905f5260205f20905b815481529060010190602001808311610bb357829003601f168201915b505050505090806007018054610be590612715565b80601f0160208091040260200160405190810160405280929190818152602001828054610c1190612715565b8015610c5c5780601f10610c3357610100808354040283529160200191610c5c565b820191905f5260205f20905b815481529060010190602001808311610c3f57829003601f168201915b505050505090806008018054610c7190612715565b80601f0160208091040260200160405190810160405280929190818152602001828054610c9d90612715565b8015610ce85780601f10610cbf57610100808354040283529160200191610ce8565b820191905f5260205f20905b815481529060010190602001808311610ccb57829003601f168201915b505050505090508a565b5f5160206129065f395f51905f52610d0981611513565b87518a5114610d525760405162461bcd60e51b8152602060048201526015602482015274092dce0eae840d8cadccee8d040dad2e6dac2e8c6d605b1b604482015260640161073d565b5f5b8a51811015610e5757610e4f8b8281518110610d7257610d7261274d565b60200260200101518b8381518110610d8c57610d8c61274d565b60200260200101518b8481518110610da657610da661274d565b60200260200101518b8581518110610dc057610dc061274d565b60200260200101518b8681518110610dda57610dda61274d565b60200260200101518b8781518110610df457610df461274d565b60200260200101518b8881518110610e0e57610e0e61274d565b60200260200101518b8981518110610e2857610e2861274d565b60200260200101518b8a81518110610e4257610e4261274d565b6020026020010151610fbe565b600101610d54565b5050505050505050505050565b5f6001600160a01b038216610e8e576040516322718ad960e21b81525f600482015260240161073d565b506001600160a01b03165f9081526003602052604090205490565b5f610eb381611513565b610eca5f5160206129065f395f51905f5284610f52565b610f3157610ee55f5160206129065f395f51905f52846115ba565b50600e80546001810182555f919091527fbb7b4a454dc3493923482f07822329ed19e8244eff582cc204f8554c3620c3fd0180546001600160a01b0319166001600160a01b0385161790555b6001600160a01b0383165f908152600a6020526040902061088b83826127a5565b5f9182526007602090815260408084206001600160a01b0393909316845291905290205460ff1690565b6060600180546104ff90612715565b6105b23383836116b6565b600e8181548110610fa5575f80fd5b5f918252602090912001546001600160a01b0316905081565b5f5160206129065f395f51905f52610fd581611513565b5f868152600f602052604090205460ff161561103d5760405162461bcd60e51b815260206004820152602160248201527f43657274696669636174655342543a204861736820616c7265616479207573656044820152601960fa1b606482015260840161073d565b600880545f918261104d8361285f565b91905055905061105d8b82611754565b611067818b61176d565b60408051610140810182528a815260208082018b90528183018a9052426060830152336080830152600160a083015260c0820189905260e08201889052610100820187905261012082018690525f848152600990915291909120815181906110cf90826127a5565b50602082015160018201906110e490826127a5565b506040820151600282015560608201516003820155608082015160048201805460a08501511515600160a01b026001600160a81b03199091166001600160a01b039093169290921791909117905560c0820151600582019061114690826127a5565b5060e0820151600682019061115b90826127a5565b50610100820151600782019061117190826127a5565b50610120820151600882019061118790826127a5565b5050506001600160a01b038b165f818152600b6020908152604080832080546001818101835591855283852001869055338452600c835281842080548083018255908552838520018690558b8452600f8352818420805460ff19169091179055600d909152908190208390555182907fb7ff6cbe8f0282bf405f9ce3210be62c5620d39139a49186436e3f0fcc6a315a90611223908d90611ef8565b60405180910390a35050505050505050505050565b611243848484610808565b61088b33858585856117bc565b600a6020525f90815260409020805461126890612715565b80601f016020809104026020016040519081016040528092919081815260200182805461129490612715565b80156112df5780601f106112b6576101008083540402835291602001916112df565b820191905f5260205f20905b8154815290600101906020018083116112c257829003601f168201915b505050505081565b6001600160a01b0381165f908152600c602090815260409182902080548351818402810184019094528084526060939283018282801561065357602002820191905f5260205f20908154815260200190600101908083116106a85750505050509050919050565b6060611359826114ce565b505f828152600660205260408120805461137290612715565b80601f016020809104026020016040519081016040528092919081815260200182805461139e90612715565b80156113e95780601f106113c0576101008083540402835291602001916113e9565b820191905f5260205f20905b8154815290600101906020018083116113cc57829003601f168201915b505050505090505f61140560408051602081019091525f815290565b905080515f03611416575092915050565b81511561144857808260405160200161143092919061289a565b60405160208183030381529060405292505050919050565b611451846118e4565b949350505050565b5f8281526007602052604090206001015461147381611513565b61088b838361164b565b6001600160a01b039182165f90815260056020908152604080832093909416825291909152205460ff1690565b5f6001600160e01b03198216637965db0b60e01b14806104eb57506104eb82611955565b5f818152600260205260408120546001600160a01b0316806104eb57604051637e27328960e01b81526004810184905260240161073d565b6108e88383836001611979565b61151d8133611a7d565b50565b5f5f61152d858585611ab6565b90506001600160a01b0381161580159061154f57506001600160a01b03851615155b156114515760405162461bcd60e51b815260206004820152603560248201527f43657274696669636174655342543a20536f756c626f756e6420746f6b656e2060448201527418d85b9b9bdd081899481d1c985b9cd9995c9c9959605a1b606482015260840161073d565b5f6115c58383610f52565b611644575f8381526007602090815260408083206001600160a01b03861684529091529020805460ff191660011790556115fc3390565b6001600160a01b0316826001600160a01b0316847f2f8788117e7eff1d82e926ec794901d17c78024a50270940304540a733656f0d60405160405180910390a45060016104eb565b505f6104eb565b5f6116568383610f52565b15611644575f8381526007602090815260408083206001600160a01b0386168085529252808320805460ff1916905551339286917ff6391f5c32d9c69d2a47ea670b442974b53935d1edc7fd64eb21e047a839171b9190a45060016104eb565b6001600160a01b0382166116e857604051630b61174360e31b81526001600160a01b038316600482015260240161073d565b6001600160a01b038381165f81815260056020908152604080832094871680845294825291829020805460ff191686151590811790915591519182527f17307eab39ab6107e8899845ad3d59bd9653f200f220920489ca2b5937696c31910160405180910390a3505050565b6105b2828260405180602001604052805f815250611ba8565b5f82815260066020526040902061178482826127a5565b506040518281527ff8e1a15aba9398e019f0b49df1a4fde98ee17ae345cb5f6b5e2c27f5033e8ce79060200160405180910390a15050565b6001600160a01b0383163b156118dd57604051630a85bd0160e11b81526001600160a01b0384169063150b7a02906117fe9088908890879087906004016128ae565b6020604051808303815f875af1925050508015611838575060408051601f3d908101601f19168201909252611835918101906128ea565b60015b61189f573d808015611865576040519150601f19603f3d011682016040523d82523d5f602084013e61186a565b606091505b5080515f0361189757604051633250574960e11b81526001600160a01b038516600482015260240161073d565b805160208201fd5b6001600160e01b03198116630a85bd0160e11b146118db57604051633250574960e11b81526001600160a01b038516600482015260240161073d565b505b5050505050565b60606118ef826114ce565b505f61190560408051602081019091525f815290565b90505f8151116119235760405180602001604052805f81525061194e565b8061192d84611bbf565b60405160200161193e92919061289a565b6040516020818303038152906040525b9392505050565b5f6001600160e01b03198216632483248360e11b14806104eb57506104eb82611c4e565b808061198d57506001600160a01b03821615155b15611a4e575f61199c846114ce565b90506001600160a01b038316158015906119c85750826001600160a01b0316816001600160a01b031614155b80156119db57506119d9818461147d565b155b15611a045760405163a9fbf51f60e01b81526001600160a01b038416600482015260240161073d565b8115611a4c5783856001600160a01b0316826001600160a01b03167f8c5be1e5ebec7d5bd14f71427d1e84f3dd0314c0f7b2291e5b200ac8c7c3b92560405160405180910390a45b505b50505f90815260046020526040902080546001600160a01b0319166001600160a01b0392909216919091179055565b611a878282610f52565b6105b25760405163e2517d3f60e01b81526001600160a01b03821660048201526024810183905260440161073d565b5f828152600260205260408120546001600160a01b0390811690831615611ae257611ae2818486611c9d565b6001600160a01b03811615611b1c57611afd5f855f5f611979565b6001600160a01b0381165f90815260036020526040902080545f190190555b6001600160a01b03851615611b4a576001600160a01b0385165f908152600360205260409020805460010190555b5f8481526002602052604080822080546001600160a01b0319166001600160a01b0389811691821790925591518793918516917fddf252ad1be2c89b69c2b068fc378daa952ba7f163c4a11628f55a4df523b3ef91a4949350505050565b611bb28383611d01565b6108e8335f8585856117bc565b60605f611bcb83611d62565b60010190505f816001600160401b03811115611be957611be9612111565b6040519080825280601f01601f191660200182016040528015611c13576020820181803683370190505b5090508181016020015b5f19016f181899199a1a9b1b9c1cb0b131b232b360811b600a86061a8153600a8504945084611c1d57509392505050565b5f6001600160e01b031982166380ac58cd60e01b1480611c7e57506001600160e01b03198216635b5e139f60e01b145b806104eb57506301ffc9a760e01b6001600160e01b03198316146104eb565b611ca8838383611e39565b6108e8576001600160a01b038316611cd657604051637e27328960e01b81526004810182905260240161073d565b60405163177e802f60e01b81526001600160a01b03831660048201526024810182905260440161073d565b6001600160a01b038216611d2a57604051633250574960e11b81525f600482015260240161073d565b5f611d3683835f611520565b90506001600160a01b038116156108e8576040516339e3563760e11b81525f600482015260240161073d565b5f8072184f03e93ff9f4daa797ed6e38ed64bf6a1f0160401b8310611da05772184f03e93ff9f4daa797ed6e38ed64bf6a1f0160401b830492506040015b6d04ee2d6d415b85acef81000000008310611dcc576d04ee2d6d415b85acef8100000000830492506020015b662386f26fc100008310611dea57662386f26fc10000830492506010015b6305f5e1008310611e02576305f5e100830492506008015b6127108310611e1657612710830492506004015b60648310611e28576064830492506002015b600a83106104eb5760010192915050565b5f6001600160a01b038316158015906114515750826001600160a01b0316846001600160a01b03161480611e725750611e72848461147d565b806114515750505f908152600460205260409020546001600160a01b03908116911614919050565b6001600160e01b03198116811461151d575f5ffd5b5f60208284031215611ebf575f5ffd5b813561194e81611e9a565b5f81518084528060208401602086015e5f602082860101526020601f19601f83011685010191505092915050565b602081525f61194e6020830184611eca565b5f60208284031215611f1a575f5ffd5b5035919050565b80356001600160a01b0381168114611f37575f5ffd5b919050565b5f5f60408385031215611f4d575f5ffd5b611f5683611f21565b946020939093013593505050565b5f60208284031215611f74575f5ffd5b61194e82611f21565b602080825282518282018190525f918401906040840190835b81811015611fb4578351835260209384019390920191600101611f96565b509095945050505050565b5f5f5f60608486031215611fd1575f5ffd5b611fda84611f21565b9250611fe860208501611f21565b929592945050506040919091013590565b5f5f6040838503121561200a575f5ffd5b8235915061201a60208401611f21565b90509250929050565b602080825282518282018190525f918401906040840190835b81811015611fb45783516001600160a01b031683526020938401939092019160010161203c565b61014081525f61207761014083018d611eca565b8281036020840152612089818d611eca565b604084018c9052606084018b90526001600160a01b038a16608085015288151560a085015283810360c085015290506120c28188611eca565b905082810360e08401526120d68187611eca565b90508281036101008401526120eb8186611eca565b90508281036101208401526121008185611eca565b9d9c50505050505050505050505050565b634e487b7160e01b5f52604160045260245ffd5b604051601f8201601f191681016001600160401b038111828210171561214d5761214d612111565b604052919050565b5f6001600160401b0382111561216d5761216d612111565b5060051b60200190565b5f82601f830112612186575f5ffd5b813561219961219482612155565b612125565b8082825260208201915060208360051b8601019250858311156121ba575f5ffd5b602085015b838110156121de576121d081611f21565b8352602092830192016121bf565b5095945050505050565b5f5f6001600160401b0384111561220157612201612111565b50601f8301601f191660200161221681612125565b91505082815283838301111561222a575f5ffd5b828260208301375f602084830101529392505050565b5f82601f83011261224f575f5ffd5b61194e838335602085016121e8565b5f82601f83011261226d575f5ffd5b813561227b61219482612155565b8082825260208201915060208360051b86010192508583111561229c575f5ffd5b602085015b838110156121de5780356001600160401b038111156122be575f5ffd5b6122cd886020838a0101612240565b845250602092830192016122a1565b5f82601f8301126122eb575f5ffd5b81356122f961219482612155565b8082825260208201915060208360051b86010192508583111561231a575f5ffd5b602085015b838110156121de57803583526020928301920161231f565b5f5f5f5f5f5f5f5f5f6101208a8c031215612350575f5ffd5b89356001600160401b03811115612365575f5ffd5b6123718c828d01612177565b99505060208a01356001600160401b0381111561238c575f5ffd5b6123988c828d0161225e565b98505060408a01356001600160401b038111156123b3575f5ffd5b6123bf8c828d0161225e565b97505060608a01356001600160401b038111156123da575f5ffd5b6123e68c828d0161225e565b96505060808a01356001600160401b03811115612401575f5ffd5b61240d8c828d016122dc565b95505060a08a01356001600160401b03811115612428575f5ffd5b6124348c828d0161225e565b94505060c08a01356001600160401b0381111561244f575f5ffd5b61245b8c828d0161225e565b93505060e08a01356001600160401b03811115612476575f5ffd5b6124828c828d0161225e565b9250506101008a01356001600160401b0381111561249e575f5ffd5b6124aa8c828d0161225e565b9150509295985092959850929598565b5f5f604083850312156124cb575f5ffd5b6124d483611f21565b915060208301356001600160401b038111156124ee575f5ffd5b6124fa85828601612240565b9150509250929050565b5f5f60408385031215612515575f5ffd5b61251e83611f21565b915060208301358015158114612532575f5ffd5b809150509250929050565b5f5f5f5f5f5f5f5f5f6101208a8c031215612556575f5ffd5b61255f8a611f21565b985060208a01356001600160401b03811115612579575f5ffd5b6125858c828d01612240565b98505060408a01356001600160401b038111156125a0575f5ffd5b6125ac8c828d01612240565b97505060608a01356001600160401b038111156125c7575f5ffd5b6125d38c828d01612240565b96505060808a0135945060a08a01356001600160401b038111156125f5575f5ffd5b6126018c828d01612240565b94505060c08a01356001600160401b0381111561261c575f5ffd5b6126288c828d01612240565b93505060e08a01356001600160401b03811115612643575f5ffd5b61264f8c828d01612240565b9250506101008a01356001600160401b0381111561266b575f5ffd5b6124aa8c828d01612240565b5f5f5f5f6080858703121561268a575f5ffd5b61269385611f21565b93506126a160208601611f21565b92506040850135915060608501356001600160401b038111156126c2575f5ffd5b8501601f810187136126d2575f5ffd5b6126e1878235602084016121e8565b91505092959194509250565b5f5f604083850312156126fe575f5ffd5b61270783611f21565b915061201a60208401611f21565b600181811c9082168061272957607f821691505b60208210810361274757634e487b7160e01b5f52602260045260245ffd5b50919050565b634e487b7160e01b5f52603260045260245ffd5b601f8211156108e857805f5260205f20601f840160051c810160208510156127865750805b601f840160051c820191505b818110156118dd575f8155600101612792565b81516001600160401b038111156127be576127be612111565b6127d2816127cc8454612715565b84612761565b6020601f821160018114612804575f83156127ed5750848201515b5f19600385901b1c1916600184901b1784556118dd565b5f84815260208120601f198516915b828110156128335787850151825560209485019460019092019101612813565b508482101561285057868401515f19600387901b60f8161c191681555b50505050600190811b01905550565b5f6001820161287c57634e487b7160e01b5f52601160045260245ffd5b5060010190565b5f81518060208401855e5f93019283525090919050565b5f6114516128a88386612883565b84612883565b6001600160a01b03858116825284166020820152604081018390526080606082018190525f906128e090830184611eca565b9695505050505050565b5f602082840312156128fa575f5ffd5b815161194e81611e9a56fe114e74f6ea3bd819998f78687bfcb11b140da08e9b7d222fa9c1f1ba1f2aa122a2646970667358221220e453a68a9486666bfedede5aa2365fe7573b02095b386f2be7daa0db4e312b4b64736f6c634300081c0033",
  "linkReferences": {},
  "deployedLinkReferences": {},
  "immutableReferences": {},
  "inputSourceName": "project/contracts/CertificateSBT.sol",
  "buildInfoId": "solc-0_8_28-a404b460ebe4385f678da228860e95ddf2e26b1c"
}